:020000040000FA
:10000000780D0020B5010000D5010000D7010000E7
:1000100000000000000000000000000000000000E0
:10002000000000000000000000000000D9010000F6
:100030000000000000000000DB0100006D22000055
:10004000DF010000DF010000DF010000DF01000030
:10005000DF010000DF010000DF010000DF01000020
:100060005D240000DF010000DF010000DF0100006F
:10007000B9240000DF010000DF010000DF01000003
:10008000DF010000DF010000DF010000DF010000F0
:10009000DF010000DF010000DF010000DF010000E0
:1000A000DF010000DF010000DF010000DF010000D0
:1000B000DF010000DF010000DF010000DF010000C0
:1000C00000F002F800F04BF80CA030C808382418F3
:1000D0002D18A246671EAB4654465D46AC4201D180
:1000E00000F03DF87E460F3E0FCCB6460126334267
:1000F00000D0FB1AA246AB463343184778440000B1
:1001000098440000103A02D378C878C1FAD8520750
:1001100001D330C830C101D504680C6070470000BD
:100120000023002400250026103A01D378C1FBD813
:10013000520700D330C100D50B60704710B5642959
:1001400002D100F0DBF810BD732902D100F072FB80
:1001500010BD002010BD1FB51FBD10B510BD00F0B3
:10016000B5FB1146FFF7F7FF03F0F8F900F0CDFB00
:1001700003B4FFF7F2FF03BC00F0D2FB70B50546F5
:100180000C46164602E00FCC0FC5103E102EFAD2D8
:10019000082E02D303CC03C5083E042E07D301CC9E
:1001A00001C5361F03E021782970641C6D1C761E82
:1001B000F9D270BD0D480E4901600E4901600E492B
:1001C00001600E4A0E491160002101600D48804710
:1001D0000D480047FEE7FEE7FEE7FEE7FEE7FEE725
:1001E0000A480B49094A0B4B7047000000010050B8
:1001F0005900000016000000880000002400005094
:10020000A55A000061230000C10000007809002009
:10021000780D0020780900200FB4054910B503AA15
:10022000029800F00BFB10BC08BC04B0184700009B
:10023000B00000200FB41CB5074B06AA7B446946EA
:100240000090059800F0CBFA0020694600F0DAFA39
:100250001CBC08BC04B01847C505000070B50446B6
:1002600085690068C10601D5302600E02026C00758
:1002700007D070BD62683046A1689047206A401C74
:1002800020626D1EF6D570BD70B504468569007894
:10029000C00707D170BD6268A16820209047206A1E
:1002A000401C20626D1EF6D570BD70B50C4605462B
:1002B000012A05D02878800600D5EA69002302E0EB
:1002C000012305E05B1C934202D2E05C0028F9D1D7
:1002D000A869E618C01AA861286AC01828622846CA
:1002E000FFF7BCFF04E06A682078A968641C9047A7
:1002F000B442F8D32846FFF7C7FF70BDF7B5002515
:1003000075291068009914A611D0C046C04600286F
:1003100002DA404211A608E0009909688A0701D56F
:100320000FA602E0490704D50EA6012501E0C0464C
:10033000C046009F0024243704E000F0B3FA3031B7
:100340003955641C0028F8D12B46324621460098C6
:1003500000F0E8F9FEBD0000000000002D000000E4
:100360002B00000020000000F3B50446002081B0FF
:1003700020622046E168884700287DD0252802D0E9
:100380006268A16883E0454F00257F442046E1680C
:1003900088472028064608DB312E06D2B8192038B7
:1003A0000078002801D00543F0E7A80701D5042014
:1003B00085430020E0610746A0612A2E0AD030461E
:1003C00002F00DFA002827D0B8000019303E009046
:1003D000866119E00298BA00121902C89161029070
:1003E0002046E1688847012F064617D1E0690028BA
:1003F0001FDA202085431CE000980A2180694843C9
:1004000000998019303888612046E168884706469F
:1004100002F0E5F90028EFD1012F0AD02E2E08D1E5
:100420002046E16888470646202005437F1C022FAE
:10043000C3DBA069002803DA4042A0610120054324
:10044000E80701D010208543002E24D030464138E3
:10045000192803D80120C002054320362046256014
:100460003146029A1546FFF769FE00280CD0012894
:1004700007D0ED1DE80800E00DE0C0000830029054
:1004800077E72D1D029574E762683046A1689047B2
:10049000206A401C6CE7206AFEBD0000D2410000CB
:1004A000034670B502460B439B070FD10E4CE60185
:1004B00000E008C208C91D1B9D433542F9D0D9B2DE
:1004C0001170521C00290DD01B0AF8E70B78491C4B
:1004D0001370521C002B05D00B78491C1370521C52
:1004E000002BF3D170BD00000101010130B5441CA7
:1004F00003E00178401C00290DD08107F9D10B4B96
:10050000DD0104C8D11A91432940FAD0001B0A0624
:1005100003D0C01E30BD001B30BD0A0401D0801EB8
:1005200030BD0902FCD0401E30BD000001010101B8
:10053000F8B5042A2CD3830712D00B78491C03701A
:10054000401C521E83070BD00B78491C0370401CC3
:10055000521E830704D00B78491C0370401C521EA6
:100560008B079B0F05D0C91ADF002023DE1B08C9AB
:100570000AE0FFF703FEF8BD1D4608C9FD401C4612
:10058000B4402C4310C0121F042AF5D2F308C91A34
:10059000521EF0D40B78491C0370401C521EEAD442
:1005A0000B78491C0370401C012AE4D409780170BF
:1005B000F8BDD2B210B513029A1813049A1800F0BD
:1005C0005EF910BD002203098B422CD3030A8B4233
:1005D00011D300239C464EE003460B433CD400223B
:1005E00043088B4231D303098B421CD3030A8B424D
:1005F00001D394463FE0C3098B4201D3CB01C01A1B
:10060000524183098B4201D38B01C01A52414309E5
:100610008B4201D34B01C01A524103098B4201D3D3
:100620000B01C01A5241C3088B4201D3CB00C01A40
:10063000524183088B4201D38B00C01A52414308B8
:100640008B4201D34B00C01A5241411A00D20146DD
:100650005241104670475DE0CA0F00D04942031076
:1006600000D34042534000229C4603098B422DD3C5
:10067000030A8B4212D3FC22890112BA030A8B426D
:100680000CD3890192118B4208D3890192118B42BC
:1006900004D389013AD0921100E08909C3098B4241
:1006A00001D3CB01C01A524183098B4201D38B0184
:1006B000C01A524143098B4201D34B01C01A524127
:1006C00003098B4201D30B01C01A5241C3088B426C
:1006D00001D3CB00C01A524183088B4201D38B0057
:1006E000C01A5241D9D243088B4201D34B00C01AE1
:1006F0005241411A00D20146634652415B101046F6
:1007000001D34042002B00D54942704763465B103D
:1007100000D3404201B50020C046C04602BD70472C
:1007200070477047FFB504460D4681B024300090F5
:100730002168880604D51022E0699143216000E019
:100740000120A84201DD471B00E000270498A169B1
:100750007A191018081AA0612078C00602D4204621
:10076000FFF77CFD002608E003986268A168805DC1
:100770009047206A401C761C206204988642F3DB76
:100780002078C0060AD52046FFF768FD06E06268BB
:10079000A16830209047206A401C206238467F1EA6
:1007A0000028F4DC07E000986268A168405D90478B
:1007B000206A401C206228466D1E0028F3DC20467B
:1007C000FFF762FD2078000602D5022005B0F0BDDB
:1007D0000120FBE701694A1C02610878704700B5F7
:1007E0008FB002910021059105490193794403914D
:1007F000114604906846FFF7B7FD0FB000BD00003A
:10080000E5FFFFFF0A681070521C0A60704710B5C0
:100810004369002B02D0C046C04601E0FFF745FD0A
:10082000012010BD1278014624310A7000224A705E
:100830000122ECE711680022D243E8E7084B70B5CB
:100840000D467B44FFF7CBFF0446284602F07AFEB4
:10085000002802D00020C04370BD204670BD0000BB
:10086000072D000001E004C0091F0429FBD28B07FB
:1008700001D50280801CC90700D002707047002992
:100880000BD0C30702D00270401C491E022904D3BA
:10089000830702D50280801C891EE3E70022EEE771
:1008A0000022DFE701468008081A02091018020A30
:1008B0001018020C1018C008820012185200891A71
:1008C00001E0401C0A390A29FBD27047754600F046
:1008D00023F8AE46050069465346C008C000854669
:1008E00018B020B5FFF77CFC60BC00274908B6466D
:1008F0000026C0C5C0C5C0C5C0C5C0C5C0C5C0C52F
:10090000C0C5403D49008D4670470446C046C046BC
:100910002046FFF72DFC0000004870471809002012
:1009200001491820ABBEFEE7260002007047000018
:1009300010B502460B46012A02D0022A42D120E01D
:10094000002B03D10020224C606019E02048416850
:10095000C918302050431F4C2058884203DD3020F6
:10096000504321580AE0302050431A4C0019406887
:10097000884203DA3020504300194168144841602E
:1009800022E0002B03D10020114CA06019E0104898
:100990008168C918302050430E4C2058884203DD2E
:1009A0003020504321580AE030205043094C0019B0
:1009B0004068884203DA30205043001941680448F7
:1009C000816001E0002010BD00BF0120FBE70000B6
:1009D000C40000209C350000C10F8900064A891818
:1009E0008968C306DB0E01229A401143C20F9200B0
:1009F000014BD2189160704700020050F3B583B0EC
:100A00000C460398002809D13D48006A0121C90419
:100A100088433B4908623B48029008E03848006A36
:100A20000121C90408433649086237480290374813
:100A3000844204D84010844201D9002722E034487F
:100A4000844205D84010844202D90127640019E08D
:100A50003048844205D84010844202D30327A400C2
:100A600010E00398002803D12B482549086202E0D2
:100A70002A4823490862042000F098F900F05AF847
:100A800005B0F0BD26492046FFF79CFD06462449E7
:100A90000298FFF797FD05460EE0E807C00F002813
:100AA00007D1F007C00F002803D1022D01D0022E7C
:100AB00000D102E06D087608EFE700BFB803A91E79
:100AC00049020843B11E084301900D48006A010C19
:100AD0000904019801430A480162006A05210904DA
:100AE000884307490862042000F060F97A1C6A43D1
:100AF0001146029A72431046FFF764FDC0E70000FA
:100B000000020050001BB7000080510100C2EB0B37
:100B100000E1F50580F0FA022EC200006FD6000059
:100B200040420F00024909680143014A11607047C1
:100B300000020050FEB5002002901AA0006800904C
:100B40001948046A00132040002801D00020FEBD8F
:100B50000120C0042040002801D0144D00E0144DB5
:100B6000012040042040002801D02846EFE7032060
:100B700080032040800B69460A5C0192E005C00DAD
:100B8000861C1F2040022040400A871C019A7A439D
:100B90001146AA0872431046FFF714FD8000029028
:100BA0000298D4E7010202040002005000805101C3
:100BB000001BB700FEB5002002901AA0006800904C
:100BC0001948046A00132040002801D00020FEBD0F
:100BD0000120C0042040002801D0144D00E0144D35
:100BE000012040042040002801D02846EFE70320E0
:100BF00080032040800B69460A5C0192E005C00D2D
:100C0000861C1F2040022040400A871C019A7A431C
:100C10001146AA0872431046FFF7D4FC80000290E8
:100C20000298D4E701020204000200500080510142
:100C3000001BB700FEB5002002901AA000680090CB
:100C40001948046A00132040002801D00020FEBD8E
:100C50000120C0042040002801D0144D00E0144DB4
:100C6000012040042040002801D02846EFE703205F
:100C700080032040800B69460A5C0192E005C00DAC
:100C8000861C1F2040022040400A871C019A7A439C
:100C90001146AA0872431046FFF794FC80000290A8
:100CA0000298D4E7010202040002005000805101C2
:100CB000001BB70010B504461048844201D9044611
:100CC00003E00F48844200D204460E480068C00783
:100CD000C00F002805D021460020FFF78FFE0446F4
:100CE00005E021460120C004FFF788FE04460021EC
:100CF000022000F009F8204610BD000080F0FA0242
:100D000040787D010002005070B504460D46084849
:100D10000069C008C0002043054908610846806991
:100D2000000900012843886101F0E8FA70BD000065
:100D300000020050F0B50B46002100240025C6003B
:100D4000360F002E0FD04600B60FB600114FF41923
:100D50002168C600370FC601F60EB7400E46BE43E7
:100D60001E43314621608603360E002E10D0060346
:100D7000B60FB600074F0837F51929688603360EF7
:100D8000F6438705FF0EBE400E40164331462960EC
:100D9000F0BD000010020050034909693822914358
:100DA0000143014A1161704700020050064904E006
:100DB0000A46491E002A00DC04E0044AD2680240C8
:100DC0008242F5D100BF704790D00300000200506E
:100DD00010B5002000F02EFB0B480068103000F02A
:100DE0006AFC09480068243000F065FC0648006889
:100DF000383000F060FC05A000F070F80549C868C4
:100E000000F04EF810BD000004000020CAD6B6AFB6
:100E100000000000C400002010B5002000F00AFB14
:100E200008480068183000F046FC064800682C307E
:100E300000F041FC012000F007F8022000F004F867
:100E400010BD00000800002010B588B00446012C39
:100E500002D0022C1DD10DE06946012000F0B8F847
:100E600069460E48006801650C480068403000F093
:100E7000D0FB0FE06946022000F0AAF86946074857
:100E800000687830016105480068783000F0C1FBE7
:100E900000E000BF00BF08B010BD00000800002047
:100EA00010B586B004460121684601710021018118
:100EB0000121C18000214181224606A103A8FFF73C
:100EC000B9F901AB03AA23212E2000F0D1FA06B014
:100ED00010BD000025303464000000001CB504463D
:100EE000012168460170002181800121418000219B
:100EF000C1806B46224623219C2000F0B9FA1CBD1C
:100F000010B5044609480068A030007C02280CDCBB
:100F100006490968A031087C2146FFF709FD03490D
:100F20000968A031087CFFF78FFF10BD0800002082
:100F300010B5044601202075204600F06AFB10BD64
:100F400010B504460D4800684030007D002806D0EA
:100F5000012C04D009480068403000F0BCFC074870
:100F600000687830007D002806D0022C04D00348A9
:100F70000068783000F0AFFC10BD000008000020D1
:100F800003480068400840000149086070470000BD
:100F900000C000500348006801210843014908606F
:100FA0007047000000C0005001460020074AD06092
:100FB0001046416001201061BFF36F8F00BF0348EE
:100FC00000690028FBD101488068704700C00050CC
:100FD000F8B504460D46012C02D0022C26D112E0B1
:100FE000164948680A21FFF7EDFA0E46134948688A
:100FF0000A21FFF7E7FA074633463A4610A128468A
:10100000FFF718F917E00D4988680A21FFF7DAFAA7
:101010000E460A4988680A21FFF7D4FA0746334684
:101020003A4607A12846FFF705F904E006A128463D
:10103000FFF736FA00BF00BFF8BD0000C400002073
:1010400025642E25645300002D2D2D0070B5034618
:1010500000200FE0012484400C40002C09D01C68C3
:1010600046000325B540AC4346001546B5402C4329
:101070001C60401C0828EDD370BD0000002003490F
:10108000C8600120C8600020C8607047404200501E
:1010900070B50446002514E00120C003204000285C
:1010A00003D001200949086102E0002007490861D6
:1010B000002006498860012088606004040C681CD8
:1010C000C5B2102DE8DBFFF7D9FF70BD40420050DC
:1010D0000EB501201E490968087000201C490968E6
:1010E000888001201A490968488000201849096849
:1010F000C8801748006817A100221346009201918A
:1011000002900A22282112480068103000F016FDD3
:101110000F48006813A1002213460092019102902B
:10112000232206210A480068243000F007FD084801
:1011300000680EA100221346009201910290232222
:10114000562103480068383000F0F8FC0EBD00005E
:1011500004000020D3E3C6ACBBFABFD8D6C6CFB5D7
:10116000CDB30000C0DBBCC63A000000B9A4D7F77D
:10117000C4A3CABD3A0000000EB500202D4909687D
:1011800008702C490968888001202A49096848802C
:1011900028490968C8802748006827A1002213460B
:1011A00000920191029006221146224800681830F0
:1011B00000F0C4FC1F48006822A1002213460092E0
:1011C000019102901A2206211A4800682C3000F082
:1011D000B5FC00201749096808740021154800680B
:1011E0008182012113480068418200211148006872
:1011F000C18210480068103015A123220F230092ED
:1012000001910290042242210A480068403000F017
:10121000DCFB0848006810300DA123220F23009248
:10122000019102901822422102480068783000F0B3
:10123000CCFB0EBD08000020C9CFC9FDD1D3CAB177
:101240003A000000CFC2BDB5D1D3CAB13A00000008
:101250000000000010B51248FFF7BEFB0022114647
:101260000F48FFF767FD05200007C06B0D490840D8
:1012700005210907C8630846C06B032108430521FF
:101280000907C863084800F09BFFE12149020748AD
:1012900001F042F90121054801F02AF910BD0000D2
:1012A000103D8027FCFCFFFF1000000400000540FB
:1012B0000348C06B002801D1012070470020FCE7E3
:1012C000004200500348806B002801D10120704784
:1012D0000020FCE7004200500348406B002801D189
:1012E000012070470020FCE700420050034880685E
:1012F000002801D1012070470020FCE78042005007
:1013000003484068002801D1012070470020FCE715
:10131000804200500348006B002801D10120704733
:101320000020FCE7004200500348C06A002801D1B9
:10133000012070470020FCE7004200500348806A0B
:10134000002801D1012070470020FCE70042005036
:101350000348406A002801D1012070470020FCE7C3
:10136000004200500348006A002801D10120704764
:101370000020FCE70042005070B5012000F05AFC4C
:10138000002416E02146B831C8B200F0A3FC40208A
:1013900000F0A0FC002508E0C0216143244A891820
:1013A000485D00F0B3FC681CC5B2402DF4DB601C46
:1013B000C4B2082CE6DB022000F03CFC002416E05E
:1013C0002146B831C8B200F085FC402000F082FC14
:1013D000402508E0C0216143154A8918485D00F0A6
:1013E00095FC681CC5B2802DF4DB601CC4B2082CCF
:1013F000E6DB032000F01EFC002416E02146B83195
:10140000C8B200F067FC402000F064FC802508E0D2
:10141000C0216143064A8918485D00F077FC681CCA
:10142000C5B2C02DF4DB601CC4B2082CE6DB70BD75
:101430009D01002070B5064600240CE0002506E062
:10144000C0206043084940184655681CC5B2C02DED
:10145000F6DB601CC4B2082CF0DB044800780128DD
:1014600001D1FFF789FF70BD9D0100201D00002004
:10147000FEB504460D4616461F46002000903B462A
:10148000324629460190204600F001F8FEBDFFB526
:10149000ADB015461C4600200890079002900190C0
:1014A0002078002806D001280CD0022812D003286A
:1014B00020D117E00C200790089001200290022014
:1014C000019017E010200790089001200290022060
:1014D00001900FE01820079008900220029003204E
:1014E000019007E02020079008900220029004203D
:1014F000019000BF00BF2146284600F026FA0646AC
:10150000002004903699B14211DD3798022804D1A9
:101510003698801B80B2049009E03798012806D1E4
:101520003699881BC10F0918C903090C0491049846
:10153000002804DD04992D98401880B22D9062E0B7
:1015400028782C902C9880280DDA21780BAA2C98DA
:1015500001F094F80898C10F0918C905090E0A91FD
:101560000298039011E0681C054600782B902B9898
:10157000002800D14AE022780BAB2B992C9801F07F
:10158000CFF808980A90019803902E9805900020B3
:1015900009902CE02D98069000271DE003990998EA
:1015A0004843F90840180BA9085C7A07520F8021BC
:1015B00011410840002805D0A2780599069800F04E
:1015C000C9FA04E022790599069800F0C3FA069852
:1015D000401C80B206907F1C0A988742DED3059893
:1015E000401C80B205900998401C80B20990079970
:1015F00009988842CEDBE1880A9809182D980818C6
:1016000080B22D906D1C2878002899D100BF31B090
:10161000F0BDFEB504462069002815D000250BE07A
:101620002069415D2046153041552069405D002804
:1016300000D103E0681C85B2202DF1DB00BF002142
:10164000352001550020206120461530E16800F06A
:101650007CF905462189481BC10F09184910628889
:1016600089188EB2E06800F03EF9E1880F1AF80F91
:10167000C0194010A1884018401C80B20190224639
:101680001532E36830460199FFF7F2FE207D00280D
:1016900008D1012000902389A279A188608800F0F8
:1016A000E4F807E0022000902389A279A1886088ED
:1016B00000F0DBF8FEBDF0B5C1B004462069FEF7CE
:1016C00015FF86B26089B04207DAA1886088E368B6
:1016D0002269FFF7CDFE66811BE0002505E0206949
:1016E000405D01A94855681C85B2B542F7DB04E0AE
:1016F000202001A94855681C85B26089A842F7DC02
:10170000002001A94855A188608801AAE368FFF775
:10171000AFFE41B0F0BDFFB589B005460E46174695
:1017200031462846129A00F015FABD4204D10C98B1
:10173000864201D10DB0F0BD00200190AF4202DB26
:10174000781B089001E0E81B08900C98B04203DB7E
:101750000C98801B079002E00C98301A07900799AC
:10176000089888420DDA012101912846354606463F
:1017700038460C9F0C90089988B2079908910790F9
:1017800000BFAF4201DD012001E00020C043069010
:101790000C98B04201DD012001E00020C04305901B
:1017A0002C46009607984000049008990798401A24
:1017B0004000039008990498401A029051E0029862
:1017C000002804DA049902984018029007E005996D
:1017D00000984018009003990298401802901298BF
:1017E000012810DC0198002806D0A1B2009A90B21E
:1017F000129A00F0AFF932E0009A91B2A0B2129AB8
:1018000000F0A8F92BE00198002814D0601BC10F4C
:10181000091849104900411A06D0A1B2009A90B2A5
:10182000002200F097F91AE0A1B2009A90B20122CA
:1018300000F090F913E0601BC10F0918491049002E
:10184000411A06D0009A91B2A0B2002200F082F9AB
:1018500005E0009A91B2A0B2012200F07BF906984F
:101860002418BC42ABD100BF64E7FEB504460D4668
:1018700016461F4608980090E019401E82B22B467B
:1018800029462046FFF747FF08980090A819401EF8
:1018900083B2E019401E82B2A819401E81B22046D0
:1018A000FFF739FF08980090A819401E83B222461E
:1018B00029462046FFF72FFF08980090A81983B209
:1018C000E019401E82B2E019401E80B22946019004
:1018D000FFF721FFFEBD10B504460020207520460D
:1018E000FFF797FE10BD00B5014610200A781300DF
:1018F00000F064FF0705070B0D080A0E10000C200E
:1019000008E000BF102005E000BF182002E000BF83
:10191000202000BF00BF00BD00B5014610200A789E
:10192000130000F04BFF0705070B0D080A0E10000F
:101930000C2008E000BF102005E000BF182002E0E6
:1019400000BF202000BF00BF00BDFEB506460D460B
:101950003446002002902846FFF7DEFF00902EE07C
:101960002778802F19DA2878002806D0012807D098
:10197000022808D003280CD108E0062000900BE0D4
:101980000820009008E00C20009005E01020009056
:1019900002E00820009000BF0BE0601C04460078C5
:1019A00001900198002800D10CE02846FFF7B4FF11
:1019B000009000990298401880B20290641C207830
:1019C0000028CDD100BF0298FEBDF0B505AC70CCAB
:1019D00041808280C38004810561C660002707754D
:1019E000F0BD000010B5012220215248FFF72EFB68
:1019F000012210214F48FFF729FB012280214D4889
:101A00008038FFF723FB012240214A488038FFF746
:101A10001DFB0122202147488038FFF717FB0122D8
:101A200011464448FFF712FB012211464248FFF7D6
:101A30000DFB012202214048FFF708FB012204218F
:101A40003D48FFF703FB012208213B48FFF7FEFA60
:101A5000012210213848FFF7F9FA012220213648E7
:101A6000FFF7F4FA012240213348FFF7EFFA012291
:101A700080213148FFF7EAFA322000F0A5FF01206B
:101A800000F0D8F83E2000F025F9022000F0D2F84E
:101A90003E2000F01FF9032000F0CCF83E2000F0BB
:101AA00019F9012000F0C6F8B82000F013F902205F
:101AB00000F0C0F8B82000F00DF9032000F0BAF8EB
:101AC000B82000F007F9012000F0B4F8C02000F0C1
:101AD00001F9022000F0AEF8C02000F0FBF803206E
:101AE00000F0A8F8C02000F0F5F8012000F0A2F8FE
:101AF000402000F0EFF8022000F09CF8402000F0B9
:101B0000E9F8032000F096F8402000F0E3F8012007
:101B100000F090F83F2000F0DDF8022000F08AF895
:101B20003F2000F0D7F8032000F084F83F2000F0B9
:101B3000D1F810BD0041005000400050F0B505AC98
:101B400070CC41808280C38004810561C66000271B
:101B50004781F0BDF7B586B005460C462FA103C9F5
:101B6000049103902FA103C902910190E117490F3D
:101B700009194905090E0591EEB2C021059848439F
:101B80002A494018875D089800280AD12046E117A5
:101B9000490F0918C910C900611A01AA515C0F4008
:101BA00009E02046E117490F0918C910C900611A58
:101BB00003AA515C0F43C021059848431B494018B4
:101BC0008755402D03DA012000F034F813E0802D12
:101BD00006DA022000F02EF830464038C6B20AE09D
:101BE000C02D06DA032000F025F830468038C6B252
:101BF00001E009B0F0BD0E48007801280CD105992C
:101C0000B831C8B200F066F831464031C8B200F0D1
:101C100061F8384600F07AF800BFEAE701020408EC
:101C200010204080FEFDFBF7EFDFBF7F9D0100200D
:101C30001D000020012808D100210F4A91610121D7
:101C400051610D4A4032116015E0022809D101218D
:101C5000094A9161002151610121074A4032116016
:101C600009E0032807D10121034A91615161002154
:101C7000014A4032116070474042005010B50322C3
:101C800080211248FFF7E2F9FF2010498860002008
:101C90000F49C8610E49403148610120086100BF09
:101CA00001200B49C861142000F0B0FE074800690C
:101CB000C4B200200649C861802020400028EFD12E
:101CC000012280210148FFF7C1F910BD00400050FA
:101CD0004042005010B50446FFF7D0FF00200949EC
:101CE000C8610849403148610861074884600120A3
:101CF0000449C861142000F089FE00200149C86130
:101D000010BD0000404200500040005010B5044695
:101D1000FFF7B4FF00200A49C8610120084940319B
:101D20004861002008610748846001200449C861B7
:101D3000142000F06BFE00200149C86110BD0000B6
:101D4000404200500040005010B50A494869142232
:101D5000094901F0ADFA08480068FF2105318842C1
:101D600007D008460449086000204860886000F0F9
:101D700051FA10BD00C00050C400002070B594B0EE
:101D800001A86F490860FFF7A3F9FFF721F80126C2
:101D90000024CCE000F05EFF002E00D000260020E2
:101DA00000F024FD002805D0062001F0A5F965A06B
:101DB000FEF732FA012000F019FD002805D00720B7
:101DC00001F09AF969A0FEF727FA00F0B3FE054684
:101DD000002D28D0012D02D0042D22D112E00020A8
:101DE00000F01CFD062000F019FD674880687D2288
:101DF000D20050430146012001F0A4FA63A0FEF78F
:101E00000BFA0FE0072000F009FD6AA0FEF704FAC4
:101E10005D48C068401C5C49C860C868FFF740F86E
:101E200000E000BF00BF00F09FFE0546002D7ED001
:101E30000E2D1AD00CDC052D52D004DC032D67D0FA
:101E4000042D72D158E00C2D13D00D2D6DD117E05B
:101E5000232D63D004DC0F2D36D0142D65D121E065
:101E6000242D4FD0252D60D140E001205949087024
:101E70005CE000204449C860C868FFF711F855E0ED
:101E8000012C0ED154A0FEF7C7F9002001F034F95F
:101E90003D4840687D22D20050430146002001F0B9
:101EA00051FA43E0012C0ED1002001F095FA0120F7
:101EB00001F092FA002000F0B1FC062000F0AEFC28
:101EC000072000F0ABFC31E0002C04D101244AA033
:101ED000FFF704F803E0002449A0FEF7FFFF25E028
:101EE000002C02D1002001F007F91FE0002C02D1E4
:101EF000002000F093FC19E0002C02D1062001F034
:101F0000FBF813E0002C02D1062000F087FC0DE066
:101F1000002C02D1072001F0EFF807E0002C02D1DD
:101F2000072000F07BFC01E0FFE700BF00BF29486D
:101F30000078002800D12DE700F06CF914B070BDD6
:101F400004000020D3E3C6ACBBFAB9A4D7F7D6D0BF
:101F5000A3ACC7D0B5B6B5E7BBFAD4CBD7AA2CC9CA
:101F6000CFC9FDB5E7BBFAD4CBD7AA00D3E3C6AC43
:101F7000BBFAB9A4D7F7D6D0A3ACCFC2BDB5B5E7ED
:101F8000BBFAD4CBD7AA0000C4000020D3E3C6AC70
:101F9000BBFAB9A4D7F7D6D0A3ACC7D0B5B6B5E7CE
:101FA000BBFACDA3D6B92CC9CFC9FDB5E7BBFACDD5
:101FB000A3D6B900D3E3C6ACBBFAB9A4D7F7CDEA30
:101FC000B3C9A3ACCFC2BDB5B5E7BBFACDA3D6B9F3
:101FD0000000000000000020D3E3C6ACBBFABFAA9B
:101FE000CABCB9A4D7F7A3ACC7D0B5B6B5E7BBFA9E
:101FF000D4CBD7AA00000000D7D4B6AF00000000B1
:10200000CAD6B6AF00000000C206D20E0121914030
:10201000014A11607047000080E100E0C206D20E64
:1020200001219140014A11607047000000E100E089
:1020300010B5002819DA1A4A03071B0F083B9B0842
:102040009B00D2588307DC0EFF23A3409A438B07E3
:102050001B0E8407E40EA3401A43114B0407240F00
:10206000083CA408A4001A5118E00E4A03231B02DE
:10207000D21883089B00D2588307DC0EFF23A340AD
:102080009A438B071B0E8407E40EA3401A43054BAB
:10209000032424021B198408A4001A5110BD000057
:1020A0001CED00E000E100E010B50BA0FEF7B4F875
:1020B00019A0FEF7B1F808A0FEF7AEF826A0FEF7CB
:1020C000ABF815A0FEF7A8F813A0FEF7A5F802A03C
:1020D000FEF7A2F810BD00002B2D2D2D2D2D2D2D3E
:1020E0002D2D2D2D2D2D2D2D2D2D2D2D2D2D2D2D20
:1020F0002D2D2D2D2D2D2D2D2D2D2D2D2D2D2D2D10
:102100002D2D2D2D2D2D2D2D2D2D2D2D2D2D2D2DFF
:102110002D2D2D2D2B0A00007C202020202020207A
:1021200020202020202020202020202020202020AF
:10213000202020202020202020202020202020209F
:10214000202020202020202020202020202020208F
:10215000202020207C0A00007C20204465736372CC
:10216000697074696F6E203A202020202020202082
:10217000202020202020202020202020202020205F
:10218000202020202020202020202020202020204F
:10219000202020207C0A000010B50120FEF7C2FCA0
:1021A0000120FEF703FE0548FEF784FD0021022012
:1021B000FEF7AAFD1820FEF7EFFD10BD80F0FA0231
:1021C0000B49020E92008958012282401143084AAD
:1021D000030E9B00D1501146020E92008958012235
:1021E00082409143024A030E9B00D1507047000089
:1021F0000800005006E059200549086016200860D4
:1022000088200860024800680128F4D17047000067
:102210000001005010B5034948691422024901F039
:102220001FF910BD00C00050C400002000B50346D7
:10223000184600F001F800BD00BF0B498969012272
:10224000D20511400029F8D1074908600A280AD1AF
:1022500000BF054989690122D20511400029F8D142
:102260000D21014A116070470000054010B500F0D3
:1022700001F810BD10B51B480068002809D01948A6
:102280000068401E17490860002802D10120164945
:102290000870002407E00C216143144A881801F0FB
:1022A00041F8601CC4B2022CF5DB11480068401CE8
:1022B0000F490860084600680E49884202D1002094
:1022C0000B49086001F02AF80B480078401CC0B2A6
:1022D000094908700A2803DB0020087001F01AF889
:1022E00010BD00000C00002010000020D8000020CD
:1022F00014000020FFFFFF7F1C00002070B5124873
:10230000006945076D0FFEF795FC10490860022D26
:1023100003D0A8000E490C5801E00C4804680A4894
:1023200080690007000F461C31462046FEF74AF937
:10233000084908600849074800684A108018FEF7F5
:1023400041F90649086070BD00020050C00000203D
:10235000C8360000B800002040420F00BC0000203A
:102360007047000030B5ADB0684639490860FEF7E7
:1023700003FFFEF751FD012135480068A0300174CC
:10238000334800684030FEF7D3FD58E000F062FCAF
:10239000002D00D0002500F0E7FB0446002C4ED0B5
:1023A000122C40D006DC0F2C0DD0102C07D0112C95
:1023B00043D130E0512C32D0522C3ED138E00020B5
:1023C000244908703AE022480068A030007C0128C7
:1023D0000DD102211E480068A03001741C4800681D
:1023E0007830FEF7A5FD0220FEF7AAFD12E018489E
:1023F0000068A030007C02280CD10121144800683C
:10240000A0300174124800684030FEF791FD0120B1
:10241000FEF796FD12E00120FEF772FD0EE00120AE
:10242000FEF76EFD0AE00020C043FEF769FD05E0FF
:102430000020C043FEF764FD00E000BF00BF054878
:1024400000780128A2D0FFF7E5FE2DB030BD0000D6
:1024500008000020000000200160704710B500BF98
:1024600012488068C007C00F00281ED000BF01209E
:102470000E49886000BF00BF0846006849038843D2
:102480000A49086000BF082001218140084A116004
:1024900000BF00BF05480068012189078843034940
:1024A000086000BF03480068804710BD000001407D
:1024B00080E100E01800002010B5024800F076F836
:1024C00010BD0000F007002070B504460D4660689E
:1024D000A84360600548844203D10C20FFF794FDB7
:1024E00002E00D20FFF790FD70BD000000000540E8
:1024F00070B504460D466068284360600548844214
:1025000003D10C20FFF78AFD02E00D20FFF786FDC6
:1025100070BD000000000540F0B585B004460D46D2
:102520001E4801460EC9C0686E460EC603900027BD
:102530001B484069032109060840060E002020635D
:102540000320E060A06817490840A060012E04D174
:10255000FEF730FBB1006A465050002D1BD0B10091
:102560006A4651586A0888182946FEF72BF8871ED4
:102570000D4887420BD9B1006A465158EA008818C5
:102580002946FEF71FF80009801E606203E0032061
:1025900000073843606205B0F0BD000098360000C7
:1025A000000200500FFFF0FFFFFF000070B504466F
:1025B0002068C669FF200130304000281BD0206809
:1025C0000068C5B2E18AA0684554E08A401C80B228
:1025D000E082E189884201DB0020E082608BE189B2
:1025E000884202DA608B401C6083606A002802D057
:1025F0002846616A884701204002304000281DD0EB
:10260000A08A002809D102212068FFF75DFF206A17
:10261000002813D0206A804710E0618A6068405C1F
:1026200021680860608A401C80B26082A18988426B
:1026300001DB00206082A08A401EA08270BD0000E5
:102640000A480B4908600B4848600B4888608020A6
:102650008881C881002008824882C8820883488314
:102660008882C86108624862704700000000054027
:10267000F00700201808002098080020F7B582B065
:10268000074600260120009000250398002802D06C
:1026900001280AD104E00C261F4D0120009006E01D
:1026A00010261E4D0120009001E005B0F0BD00BFD6
:1026B0000098012808D13846203870434119324625
:1026C0000498FDF735FF24E0002001901FE0711C05
:1026D0000198484384B20198401C80B20190285D63
:1026E000B84207D1601C84B2291932460498FDF71C
:1026F0001FFF0DE0285DFF2809D1601C285CFF2822
:1027000005D1FF2231460498FDF753FF00E0DEE7D4
:1027100000BF00BFC9E70000E8360000683B0000CA
:10272000FFB581B0002600250398002806D00128B7
:1027300007D0022808D003280CD108E018261B4D2A
:102740000AE020261A4D07E048261A4D04E08026AC
:10275000194D01E005B0F0BD00BF002721E0B01C1D
:102760003C464443781C87B2295D019881420BD1D5
:10277000601C295C0298814206D1A41C29193246AA
:102780000498FDF7D5FE0DE0285DFF2809D1601CF7
:10279000285CFF2805D1FF2231460498FDF709FF88
:1027A00000E0DCE700BF00BFD4E7000068410000A4
:1027B0005242000094440000DE44000030B47446ED
:1027C000641E2578641CAB4204D3635D5B00E31890
:1027D00030BC18471D46F8E780F310887047303842
:1027E0000A2801D2012070470020704701460229C3
:1027F00001DB002070470C204843074A80184078CE
:10280000012807D100220C204843034BC018427016
:102810000120EFE70020EDE7D800002010B50446C6
:10282000002C0AD142480088402188434049088052
:1028300008460088FEF72CFC78E0012C0AD13C48C1
:102840000088802188433A49088008460088FEF7BE
:102850001FFC6BE0022C0AD135480088E101884357
:102860003349088008460088FEF712FC5EE0032C1E
:102870000BD12F4800880121490288432C49088048
:1028800008460088FEF704FC50E0042C0AD12848D2
:102890000088210288432649088008460088FEF700
:1028A000F7FB43E0052C0BD1214800880121C90228
:1028B00088431F49088008460088FEF7E9FB35E099
:1028C000062C0BD11A4800880121090388431849B6
:1028D000088008460088FEF7DBFB27E0072C0BD1B9
:1028E000134800880121490388431149088008469C
:1028F0000088FEF7CDFB19E0082C0AD10C480088AF
:10290000E10288430A49088008460088FEF7C0FBB8
:102910000CE0092C0AD1064800880121C90388432C
:102920000349088008460088FEF7B2FB10BD00008E
:10293000AE000020F7B582B0064614461F48406935
:102940001E49496901221203891840183119884229
:1029500002D2032005B0F0BD002C01D10020F9E720
:1029600001200190FFF746FCFEF714FB002713E05F
:102970003046FEF719FB054603980068A84206D0CA
:102980000F48854201D00220E4E700200190361D67
:102990000398001D03907F1CA008B842E8D8FEF7FA
:1029A000EFFA00BF00200749086000BF0198012826
:1029B00001D10020CEE70120CCE7000000C000508C
:1029C000FFFF00000001005010B50446002C00D1AC
:1029D00010BD012C00D102240120FFF7FDFE0948A3
:1029E0000460002008490870FFF7F6FE06E000F0DA
:1029F00031F905480078012800D100E0F7E700BF71
:102A000000BFE5E70C00002010000020FEB50746DF
:102A10000026114840690090104911480068FDF7F0
:102A2000D1FD7843019000BF0B48856911E00A4849
:102A30008469AC420DD0AC4202D2281B861903E057
:102A40000098001B4019861925460198864200D33C
:102A500000E0ECE700BFFEBD00E000E040420F00F8
:102A6000B800002070B50546280131494418206897
:102A7000804700283FD02079052802DA0520207100
:102A800054E020790A2803DA2079401C20714DE0B7
:102A9000A07A002807D10120A07269006918491C9A
:102AA000C8B200F0F5FB208900283FDDE0882189CD
:102AB00088420DDAE088401C80B2E080218988429B
:102AC00034D169006918C91CC8B200F0E1FB2DE0DF
:102AD000E07A00282ADD207B401CC0B22073E17A16
:102AE000884223DB0020207369006918491CC8B2A2
:102AF00000F0CEFB1AE02079052802DD05202071C8
:102B000011E02079002803D02079401E20710AE0CE
:102B1000A07A012807D10020A07269006918891CD9
:102B2000C8B200F0B5FB0020E080207370BD00004B
:102B3000F00000200B48807A0A4AD27A904201D1F4
:102B4000002070470748807A064A115C1046807A58
:102B5000401CC0B290720A2801DB00209072084627
:102B6000EFE700009001002030B50020002160E078
:102B700000225AE08B00CB182F4C1B199B5C8C0059
:102B80000C192E4D6419A45CA3421BD08B00CB18EA
:102B9000294C1B199B5C002B05D08B00CB18284CB3
:102BA0001B19985C04E08B00CB18264C1B19985C11
:102BB0008B00CB18214C1B199B5C8C000C191E4DF3
:102BC0006419A35414234B431F4C1B1994001B5925
:102BD000002B20D014234B431B4C1B1994001C5971
:102BE00014234B43194D5B1995005B599C421AD332
:102BF0008B00CB18164C1B19985C14234B43134CB9
:102C00001B1994001B59C83314244C430F4D6419ED
:102C10009500635107E07D24E40014234B430B4DE2
:102C20005B1995005C51531CDAB2052AA2DB4B1CE0
:102C3000D9B204299CDB30BD3400002020000020E4
:102C40005C36000070360000A0070020480000201D
:102C5000843600007047000010B500BF06E0592020
:102C60001049086016200860882008600D48006838
:102C70000128F4D100BFFFF78FFA00BF00200949F7
:102C8000086000BF00F008F900F044F900F026F8F1
:102C900000F0AEF800F0E6F8FEF7A4FE0020FEF724
:102CA000C9FB10BD0001005010B50A48FDF794FEA5
:102CB000002211460748FEF73DF80121C9060648E3
:102CC000FFF7CAFB04480068000A0002401D0249E1
:102CD000086010BD0200802E0000014010B500F019
:102CE00039F800F001F810BD10B500228021184815
:102CF000FEF7ACF9002280211548FEF7A7F9002263
:102D000080211348FEF7A2F9002280211048FEF727
:102D10009DF9002280210E48FEF798F900228021BB
:102D20000B48FEF793F9002280210948FEF78EF93F
:102D3000002280210648FEF789F9002280210448FC
:102D4000FEF784F9002280210148FEF77FF910BDCB
:102D50004040005000211A4A9172D1721173002034
:102D600014E064210201174BD218118102210201E3
:102D7000D218117100210201D21891720201D218E9
:102D8000D1720201D2181173411CC8B20A28E8DBC3
:102D90000D490C4A11600D4911610D4911620D492F
:102DA00011630D4911640D4911650D4911660D49F5
:102DB00011670D4A034980310A600C4A0A61704765
:102DC00090010020F0000020B1120000C5120000A8
:102DD000D9120000ED1200000113000015130000CD
:102DE000291300003D13000051130000651300007B
:102DF00010B5002208211A48FEF728F900222021E8
:102E000017484038FEF722F90022102114484038B4
:102E1000FEF71CF90022082111484038FEF716F988
:102E2000002204210E484038FEF710F90122022149
:102E30000B488038FEF70AF901221146084880380D
:102E4000FEF704F90122802105484038FEF7FEF81C
:102E50000122402102484038FEF7F8F810BD00007A
:102E60000041005010B5012204210948FEF7EEF898
:102E7000012208210648FEF7E9F801221021044842
:102E8000FEF7E4F803480088FEF702F910BD0000E1
:102E900080400050AE00002070B5002412E00021F8
:102EA0000C206043174A801841600C206043801852
:102EB00081600C206043801841700C2060431154E5
:102EC000601CC4B2022CEADB7D21C9000E480068F8
:102ED000FDF778FB05460D48854200D90EE0280233
:102EE000000A401E0A4948610321081FFFF7A0F8A5
:102EF0000020074988610720086100BFFFF7D4FE62
:102F000070BD0000D8000020B8000020FFFFFF00C7
:102F100000E000E010B5FFF793FBFEF79BF910BD52
:102F200010B5002404E02046FFF79CFD601CC4B2ED
:102F30000A2CF8DB10BD00006A4909788A0089185C
:102F4000694A515C4900694AD2681143654A12785E
:102F50009300D218644B9954624909788A00891801
:102F60001A46891849784900604A403A526B114321
:102F70005C4A12789300D2185B4BD21851705949B1
:102F800009788A0089181A46891889784900574AA9
:102F9000403A126B1143534A12789300D218524BA5
:102FA000D21891704F4909788A0089181A468918F1
:102FB000C97849004D4A403AD26A1143494A1278C9
:102FC0009300D218484BD218D170464909788A002C
:102FD00089181A46891809794900444A403A926A80
:102FE0001143404A12789300D2183F4BD218117106
:102FF000002041E03B4909788A0089183A4A89183B
:10300000095C0907090F002918D1364A1278930084
:10301000D218374BD218115432490978142251432F
:10302000344A89188200895814312E4A12781423A0
:103030005A43304BD2188300D1501BE029490978FC
:103040008A008918284A8918095C0907090F0F297D
:1030500010D10121234A12789300D218244BD218A0
:10306000115400221F49097814235943214BC918D0
:103070008300CA50411CC8B20528BBDB1949097836
:10308000491CC9B2174A1170042901DB00211170D3
:1030900014490978002906D001290BD0022910D043
:1030A00003291CD114E00121104A403A9163002108
:1030B000516015E001210D4A403A51600021116034
:1030C0000EE00121094A403A11600021D16307E076
:1030D0000121064A403AD1630021916300E000BF1C
:1030E00000BF7047980000209900002080420050E7
:1030F00020000020A007002010B50446002C10D1AD
:1031000062480088402108406049088008460088DD
:10311000402108435D49088008460088FDF7B8FF54
:10312000B2E0012C10D1594800888021084057494D
:1031300008800846008880210843544908800846D2
:103140000088FDF7A5FF9FE0022C10D14F480088B2
:10315000E10108404D49088008460088E101084324
:103160004A49088008460088FDF792FF8CE0032C4E
:1031700012D146480088012149020840434908808D
:103180000846008801214902084340490880084652
:103190000088FDF77DFF77E0042C10D13B480088C4
:1031A0002102084039490880084600882102084366
:1031B0003649088008460088FDF76AFF64E0052C60
:1031C00011D1324800880121C90208402F490880E6
:1031D00008460088022108432C49088008460088D8
:1031E000FDF756FF50E0062C12D128480088012137
:1031F0000903084025490880084600880121090381
:1032000008432249088008460088FDF741FF3BE05B
:10321000072C12D11D4800880121490308401B4991
:10322000088008460088012149030843174908809F
:1032300008460088FDF72CFF26E0082C10D1134823
:103240000088E10208401149088008460088E10230
:1032500008430E49088008460088FDF719FF13E06F
:10326000092C11D1094800880121C90308400749E8
:103270000880084600880121C903084303490880E3
:1032800008460088FDF704FF10BD0000AE000020D6
:103290000649C97A054A50541146C97A491CC9B22F
:1032A000D1720A2901DB0021D17270479001002000
:1032B000F8B505460E461446144840691349496955
:1032C00001221203891840182919884201D20120CD
:1032D000F8BD002C01D10120FAE7FEF78BFFFDF7C6
:1032E00059FE002705E02846FDF75EFE01C62D1DAC
:1032F0007F1CA008B842F6D8FDF742FE00BF0020B0
:103300000349086000BF00BFE2E7000000C00050B2
:103310000001005010B5FFF703FE10BD10B5FFF718
:103320000BFE10BD416800290BD04168491E416069
:10333000002906D1012141700178012901D181685C
:103340004160704770B504460D46022C06DB104AFA
:1033500010A118A0FCF760FF00BFFEE70120FFF7F7
:103360003BFA0C2060431B49401845600C20604329
:103370004018856000210C206043164A8018417077
:103380000C20604311540020FFF726FA70BD0000A6
:103390002C3600002E2E5C2E2E5C557365725C62FE
:1033A00073705C7372635C6273705F74696D657275
:1033B0002E6300004572726F723A2066696C652058
:1033C00025732C2066756E6374696F6E20257328D3
:1033D000290D0A00D800002010B50446022C06DB97
:1033E0000D4A0EA115A0FCF717FF00BFFEE7012054
:1033F000FFF7F2F900210C206043184A8018416061
:103400000C206043801841700C2060431154002050
:10341000FFF7E2F910BD00004E3600002E2E5C2EA4
:103420002E5C557365725C6273705C7372635C6270
:1034300073705F74696D65722E6300004572726F00
:10344000723A2066696C652025732C2066756E6360
:1034500074696F6E20257328290D0A00D80000209A
:10346000F8B504460F461546344840693349496962
:1034700001221203891840186119884201D20120E3
:10348000F8BD002D01D10020FAE72A463946204632
:10349000FFF750FA0646002E00D1F1E7012080F335
:1034A000108800BFFEF7A6FEFDF774FD022E1AD1AC
:1034B00020462221214AD160114648600121116134
:1034C000BFF36F8F00BF00BF1C4909690029FBD102
:1034D0001A49096840221140002903D04021174AA7
:1034E000116000E000BF0020009016E0204602CFEF
:1034F0002122124BDA601A465060916001221A6153
:10350000BFF36F8F00BF00BF0C4A1269002AFBD1C6
:1035100000BF241D0098401C0090A908009881421B
:10352000E4D8FDF72DFD00BF00200549086000BF6D
:1035300000BF80F3108800BF00BFA1E700C00050AB
:103540000001005001460020C043704730B50446DA
:103550000D462046FEF76AFE204630BDFFF77CFB95
:10356000FEF7A2FDFEF7F0FB00200B49087011E00A
:1035700009480078002802D0012806D102E0FEF7B1
:10358000FDFB06E0FEF7EEFE03E0002002490870B6
:1035900000BF00BFECE700000000002000000000BA
:1035A00000000000000000002D2D2D2D2D2D2D00E0
:1035B000000000000000000000000000000000000B
:1035C00000000000000000000000000000000000FB
:1035D0006300000000000000C9CFC9FDD1D3CAB10B
:1035E00000000000000000000000000000000000DB
:1035F00000000000000000000000000000000000CB
:103600006300000000000000CFC2BDB5D1D3CAB135
:1036100000000000000000000000000000000000AA
:103620000000000000000000000000006273705FF6
:10363000537461727454696D6572006273705F5384
:10364000746172744175746F54696D657200627350
:10365000705F53746F7054696D65720001020304EA
:1036600005060708090A0B0C0D0E0F101112131492
:103670002122232425262728292A2B2C2D2E2F30C2
:10368000313233344142434445464748494A4B4C22
:103690004D4E4F5051525354001BB70000000000D4
:1036A0000000000000805101001BB7000000000076
:1036B0000000000000805101001BB7000000000066
:1036C0000000000000805101001BB7000000000056
:1036D00080F0FA0210270000000000000000000047
:1036E0000000000000805101000000000000000008
:1036F000000000000010101010100000100000006A
:10370000006C48480000000000000000001414286D
:103710007C287C2850500000001038404038487009
:1037200010100000002050200C7008140800000049
:103730000000001820205448340000000010101031
:103740001000000000000000000808101010101009
:103750001008080000202010101010101020200069
:1037600000107C102828000000000000000010104D
:1037700010FC1010100000000000000000000018F5
:103780001030200000000000007C0000000000005D
:1037900000000000000000303000000000040408B9
:1037A00008101020204000000038444444444444A1
:1037B0003800000000301010101010107C000000C5
:1037C00000384404081020447C0000000038440401
:1037D0001804044438000000000C141424447C0431
:1037E0000C000000003C2020380404443800000095
:1037F000001C20407844444438000000007C44040D
:1038000008080810100000000038444438444444BC
:103810003800000000384444443C040870000000B4
:1038200000000030300000303000000000000018C0
:10383000180000183020000000000C10608060109C
:103840000C000000000000007C007C000000000074
:103850000000C02018041820C00000000000182438
:1038600004081000300000003844444C54544C40CC
:10387000443800000030102828287C44EC00000068
:1038800000F8444478444444F8000000003C4440BC
:10389000404040443800000000F04844444444485C
:1038A000F000000000FC445070504044FC00000058
:1038B000007C20283828202070000000003C444074
:1038C000404C44443800000000EC44447C444444F0
:1038D000EC000000007C1010101010107C000000A4
:1038E000003C0808084848483000000000EC444804
:1038F00050704844E4000000007020202020242460
:103900007C00000000EC6C6C54544444EC0000005B
:1039100000EC64645454544CEC00000000384444FF
:1039200044444444380000000078242424382020F3
:10393000700000000038444444444444381C0000F3
:1039400000F8444444784844E000000000344C400F
:10395000380404645800000000FC9010101010108F
:103960003800000000EC4444444444443800000063
:1039700000EC4444282828101000000000EC4444C7
:10398000545454542800000000C444281010284403
:10399000C400000000EC442828101010380000007B
:1039A000007C4408101020447C00000000382020D7
:1039B0002020202020203800004020202010100847
:1039C0000808000000380808080808080808380037
:1039D000001010284400000000000000000000005B
:1039E00000000000000000FC0010080000000000C3
:1039F0000000000000000038443C44443C0000004B
:103A000000C0405864444444F80000000000003CFA
:103A10004440404438000000000C04344C4444440A
:103A20003C00000000000038447C40403C000000A6
:103A3000001C207C202020207C000000000000349E
:103A40004C4444443C04380000C04058644444445E
:103A5000EC00000000100070101010107C0000003E
:103A600000100078080808080808700000C0405CD2
:103A700048705048DC00000000301010101010108A
:103A80007C000000000000E854545454FC00000086
:103A9000000000D864444444EC00000000000038FA
:103AA0004444444438000000000000D864444444C6
:103AB0007840E000000000344C4444443C040C00D6
:103AC0000000006C302020207C0000000000003C42
:103AD00044380444780000000000207C202020208E
:103AE0001C000000000000CC4444444C34000000A2
:103AF000000000EC4444282810000000000000EC06
:103B00004454545428000000000000CC4830304891
:103B1000CC000000000000EC4424281810107800AD
:103B20000000007C481020447C00000000081010B9
:103B3000101020101010080000101010101010109D
:103B4000101000000020101010100810101020009D
:103B500000000000002458000000000000000000E9
:103B600000245800000000000000000000000000D9
:103B700000000000000000000000183C3C3C181849
:103B80001800181800000000006666662400000097
:103B900000000000000000000000006C6CFE6C6C77
:103BA0006CFE6C6C0000000018187CC6C2C07C065D
:103BB00086C67C181800000000000000C2C60C1861
:103BC0003060C686000000000000386C6C3876DC7F
:103BD000CCCCCC760000000000303030600000001B
:103BE000000000000000000000000C1830303030F1
:103BF0003030180C00000000000030180C0C0C0CC9
:103C00000C0C1830000000000000000000663CFFB3
:103C10003C66000000000000000000000018187E54
:103C20001818000000000000000000000000000064
:103C3000001818183000000000000000000000FE0E
:103C40000000000000000000000000000000000074
:103C500000001818000000000000000002060C1808
:103C60003060C0800000000000007CC6C6CED6D602
:103C7000E6C6C67C00000000000018387818181846
:103C80001818187E0000000000007CC6060C1830D2
:103C900060C0C6FE0000000000007CC606063C06B0
:103CA0000606C67C0000000000000C1C3C6CCCFE2C
:103CB0000C0C0C1E000000000000FEC0C0C0FC0E7A
:103CC0000606C67C0000000000003860C0C0FCC6CC
:103CD000C6C6C67C000000000000FEC606060C1822
:103CE000303030300000000000007CC6C6C67CC604
:103CF000C6C6C67C0000000000007CC6C6C67E06A4
:103D000006060C78000000000000000018180000F3
:103D10000018180000000000000000001818000043
:103D20000018183000000000000000060C18306079
:103D300030180C0600000000000000000000FE002B
:103D400000FE0000000000000000006030180C06BB
:103D50000C1830600000000000007CC6C60C18186B
:103D600018001818000000000000007CC6C6DEDE47
:103D7000DEDCC07C00000000000010386CC6C6FE0F
:103D8000C6C6C6C6000000000000FC6666667C660B
:103D9000666666FC0000000000003C66C2C0C0C051
:103DA000C0C2663C000000000000F86C66666666F3
:103DB00066666CF8000000000000FE6662687868C5
:103DC000606266FE000000000000FE6662687868BF
:103DD000606060F00000000000003C66C2C0C0DE11
:103DE000C6C6663A000000000000C6C6C6C6FEC6CB
:103DF000C6C6C6C60000000000003C1818181818F7
:103E00001818183C0000000000001E0C0C0C0C0CD4
:103E1000CCCCCC78000000000000E6666C6C7878B2
:103E20006C6666E6000000000000F06060606060A4
:103E3000606266FE000000000000C6EEFEFED6C610
:103E4000C6C6C6C6000000000000C6E6F6FEDECE0E
:103E5000C6C6C6C6000000000000386CC6C6C6C68E
:103E6000C6C66C38000000000000FC6666667C6018
:103E7000606060F00000000000007CC6C6C6C6C6D8
:103E8000C6D6DE7C0C0E00000000FC6666667C6C0C
:103E9000666666E60000000000007CC6C660380C5E
:103EA00006C6C67C0000000000007E7E5A18181866
:103EB0001818183C000000000000C6C6C6C6C6C6DA
:103EC000C6C6C67C000000000000C6C6C6C6C6C680
:103ED000C66C3810000000000000C6C6C6C6C6D6B4
:103EE000D6FE6C6C000000000000C6C66C6C383852
:103EF0006C6CC6C6000000000000666666663C1872
:103F00001818183C000000000000FEC6860C18308F
:103F100060C2C6FE0000000000003C30303030308F
:103F20003030303C0000000000000080C0E07038FD
:103F30001C0E06020000000000003C0C0C0C0C0CD7
:103F40000C0C0C3C0000000010386CC60000000097
:103F50000000000000000000000000000000000061
:103F60000000000000FF00003030180000000000DA
:103F700000000000000000000000000000780C7C41
:103F8000CCCCCC76000000000000E06060786C666D
:103F9000666666DC0000000000000000007CC6C011
:103FA000C0C0C67C0000000000001C0C0C3C6CCCA7
:103FB000CCCCCC760000000000000000007CC6FEE7
:103FC000C0C0C67C000000000000386C6460F06077
:103FD000606060F000000000000000000076CCCCC3
:103FE000CCCCCC7C0CCC78000000E060606C7666B9
:103FF000666666E600000000000018180038181811
:104000001818183C0000000000000606000E060606
:104010000606060666663C000000E06060666C7896
:10402000786C66E6000000000000381818181818B0
:104030001818183C000000000000000000ECFED63C
:10404000D6D6D6D6000000000000000000DC666670
:10405000666666660000000000000000007CC6C6C0
:10406000C6C6C67C000000000000000000DC6666DA
:104070006666667C6060F000000000000076CCCCD4
:10408000CCCCCC7C0C0C1E000000000000DC766266
:10409000606060F00000000000000000007CC6606E
:1040A000380CC67C000000000000103030FC3030BE
:1040B0003030361C000000000000000000CCCCCCEA
:1040C000CCCCCC76000000000000000000666666E4
:1040D00066663C18000000000000000000C6C6C66E
:1040E000D6D6FE6C000000000000000000C66C3850
:1040F00038386CC6000000000000000000C6C6C6CC
:10410000C6C6C67E060CF8000000000000FECC18F3
:104110003060C6FE0000000000000E18181870186D
:104120001818180E000000000000181818180018C1
:1041300018181818000000000000701818180E1841
:104140001818187000000000000076DC0000000065
:1041500000000000000000000000000010386CC6E5
:10416000C6C6FE0000000000C9CF04000400040021
:10417000044007E0040004000400040004000420DC
:10418000FFF0C9FD00800E807880088008A0FFF055
:1041900008800880088010802080C080CFC2002066
:1041A000FFF0040004000600050004C00440040001
:1041B000040004000400BDB59200FBE09640A98015
:1041C000C240ACB097E0D280A4808FF08080808025
:1041D000D1D30060F7801080208042F0728012807E
:1041E000528027F02000580087F0CAB100400040FC
:1041F000F8408FF08840FA4089408940F840884074
:10420000014000C0A1F00F0030C0402040208010CD
:104210008010801080104020402030C00F00A1F19D
:104220000F003FC07FE07FE0FFF0FFF0FFF0FFF006
:104230007FE07FE03FC00F00FFFF000000000000B4
:10424000000000000000000000000000000000006E
:104250000000D3E3040004000FE0104020887FFC3E
:10426000A10821083FF8210821083FF82008000490
:10427000FFFE0000C6AC00802080208020802084CB
:104280003FFE200020003FC0204020402040204032
:10429000204040408040BBFA1000101011F811106F
:1042A000FD101110311039105510511091101110CE
:1042B00011121212140E1800BFD81040102013FE55
:1042C0001202FC541088150418003008D3FC10208A
:1042D00010201020102457FE2000D6C60404240409
:1042E00025043FA4242444A4FFE404243FA424A4DC
:1042F00024A424842684250404140408CFB500389B
:104300007FC00400041008203FC0010002200410F8
:104310003FF8010809200910110825080200CDB353
:1043200010801040204827FC4880F910120827FC14
:104330004124F920412001201A22E222441E0800D3
:10434000C0DB00083FFC21083FF821083FF82208A5
:1043500004203FC0021004083FF809201118650826
:104360000200BCC600402040104010400040004405
:10437000F7FE10401040104010401240144018400A
:1043800010400040B9A4000000087FFC01000100BB
:104390000100010001000100010001000100010411
:1043A000FFFE00000000D7F709000900090411FE14
:1043B00012803280549098F810801080108810FC81
:1043C0001080108010801080C4A3111011141FFEE3
:1043D0001110FD1813FC32083BF8560853F89040B2
:1043E0001FFE104010B0110E1604CABD008000A0C0
:1043F00000900084FFFE008000803E80088008401E
:10440000084009200E227012200A0004CAD60010AB
:1044100000F87F00010001103FF8010001000104D5
:10442000FFFE010001000100010005000200D7D4D9
:104430000100020004101FF8101010101FF01010DF
:10444000101010101FF01010101010101FF010108E
:10445000B6AF004008407C40004405FEFE441044D6
:104460001044204424444284FE8441040104022870
:104470000410FFFF0000000000000000000000002A
:10448000000000000000000000000000000000002C
:1044900000000000FFFF000000000000000000001E
:1044A000000000000000000000000000000000000C
:1044B00000000000000000000000000000000000FC
:1044C00000000000000000000000000000000000EC
:1044D0000000000000000000000000000000FFFFDE
:1044E00000000000000000000000000000000000CC
:1044F00000000000000000000000000000000000BC
:1045000000000000000000000000000000000000AB
:10451000000000000000000000000000000000009B
:10452000000000000000000000000000000000008B
:10453000000000000000000000000000000000007B
:10454000000000000000000000000000000000006B
:10455000000000000000000000000000000000005B
:10456000040000080000000000000002000100003C
:10457000100000009445000000000020C40000006E
:104580000401000058460000C4000020B40C0000E4
:1045900020010000000000000000000000000000FA
:1045A000000000000000000000000000000000000B
:1045B00000010000010101010101010101010101EE
:1045C00001010101010101010101010101010101DB
:1045D000010101010101010101010101E8030000E4
:1045E000E8030000E8030000E8030000E80300001F
:1045F000E8030000E8030000E8030000E80300000F
:10460000E8030000E8030000E8030000E8030000FE
:10461000E8030000E8030000E8030000E8030000EE
:10462000E8030000E8030000E803000000FFFFFFCC
:10463000FFFFFFFFFFFFFFFFFFFFFFFFFFFFFFFF8A
:10464000FF000000000000000000000080F0FA02FF
:084650003200000080F0FA02C4
:04000005000001B541
:00000001FF
